{
  "_format": "hh-sol-artifact-1",
  "contractName": "BountyPool",
  "sourceName": "contracts/modules/bounty-pool-module/bounty-pool.sol",
  "abi": [
    {
      "inputs": [],
      "name": "BrandBountyPoolNotFull",
      "type": "error"
    },
    {
      "anonymous": false,
      "inputs": [
        {
          "indexed": true,
          "internalType": "address",
          "name": "reward_token",
          "type": "address"
        },
        {
          "indexed": false,
          "internalType": "uint256",
          "name": "timestamp",
          "type": "uint256"
        }
      ],
      "name": "BountyReward",
      "type": "event"
    },
    {
      "anonymous": false,
      "inputs": [
        {
          "indexed": false,
          "internalType": "address",
          "name": "token",
          "type": "address"
        }
      ],
      "name": "Deposited",
      "type": "event"
    },
    {
      "anonymous": false,
      "inputs": [
        {
          "indexed": false,
          "internalType": "address",
          "name": "token",
          "type": "address"
        },
        {
          "indexed": false,
          "internalType": "uint256",
          "name": "timestamp",
          "type": "uint256"
        }
      ],
      "name": "PaidOut",
      "type": "event"
    },
    {
      "inputs": [
        {
          "internalType": "address",
          "name": "_addr",
          "type": "address"
        },
        {
          "internalType": "uint256",
          "name": "_amount",
          "type": "uint256"
        },
        {
          "internalType": "address",
          "name": "_from",
          "type": "address"
        }
      ],
      "name": "deposit_reward",
      "outputs": [],
      "stateMutability": "nonpayable",
      "type": "function"
    },
    {
      "inputs": [
        {
          "internalType": "address",
          "name": "_addr",
          "type": "address"
        },
        {
          "internalType": "uint256",
          "name": "_amount",
          "type": "uint256"
        },
        {
          "internalType": "address",
          "name": "_to",
          "type": "address"
        }
      ],
      "name": "force_out_reward",
      "outputs": [],
      "stateMutability": "nonpayable",
      "type": "function"
    },
    {
      "inputs": [
        {
          "internalType": "address",
          "name": "_addr",
          "type": "address"
        },
        {
          "internalType": "address",
          "name": "_to",
          "type": "address"
        }
      ],
      "name": "payout_bounty",
      "outputs": [],
      "stateMutability": "nonpayable",
      "type": "function"
    },
    {
      "inputs": [
        {
          "internalType": "uint256",
          "name": "_new_reward",
          "type": "uint256"
        }
      ],
      "name": "set_reward_max",
      "outputs": [],
      "stateMutability": "nonpayable",
      "type": "function"
    }
  ],
  "bytecode": "0x608060405268056bc75e2d6310000060005534801561001d57600080fd5b506107088061002d6000396000f3fe608060405234801561001057600080fd5b506004361061004c5760003560e01c80635594bc38146100515780636c49121b1461006d578063ae2e6bf414610089578063c60226fe146100a5575b600080fd5b61006b60048036038101906100669190610459565b6100c1565b005b610087600480360381019061008291906104e4565b6100cb565b005b6100a3600480360381019061009e9190610537565b61014f565b005b6100bf60048036038101906100ba91906104e4565b61028a565b005b8060008190555050565b8273ffffffffffffffffffffffffffffffffffffffff1663a9059cbb82846040518363ffffffff1660e01b8152600401610106929190610595565b6020604051808303816000875af1158015610125573d6000803e3d6000fd5b505050506040513d601f19601f8201168201806040525081019061014991906105f6565b50505050565b60008273ffffffffffffffffffffffffffffffffffffffff166370a08231306040518263ffffffff1660e01b815260040161018a9190610623565b602060405180830381865afa1580156101a7573d6000803e3d6000fd5b505050506040513d601f19601f820116820180604052508101906101cb9190610653565b90508273ffffffffffffffffffffffffffffffffffffffff1663a9059cbb83836040518363ffffffff1660e01b8152600401610208929190610595565b6020604051808303816000875af1158015610227573d6000803e3d6000fd5b505050506040513d601f19601f8201168201806040525081019061024b91906105f6565b507f85614384dd52aa71c3b02d6986abe55274cb38b9b13fc323db17de1b950c2727834260405161027d929190610595565b60405180910390a1505050565b8273ffffffffffffffffffffffffffffffffffffffff166323b872dd8230856040518463ffffffff1660e01b81526004016102c793929190610680565b6020604051808303816000875af11580156102e6573d6000803e3d6000fd5b505050506040513d601f19601f8201168201806040525081019061030a91906105f6565b5060008373ffffffffffffffffffffffffffffffffffffffff166370a08231306040518263ffffffff1660e01b81526004016103469190610623565b602060405180830381865afa158015610363573d6000803e3d6000fd5b505050506040513d601f19601f820116820180604052508101906103879190610653565b905060005481106103e1578373ffffffffffffffffffffffffffffffffffffffff167f4d945bb0ee330bdbfd885f600659c6f477f0bbc236b9c49348bc1ea8b44e1920426040516103d891906106b7565b60405180910390a25b7f20a3fe276908af20d1fa2f8f48225ac6a1997eb2d38695c580adeb4124a1a59b846040516104109190610623565b60405180910390a150505050565b600080fd5b6000819050919050565b61043681610423565b811461044157600080fd5b50565b6000813590506104538161042d565b92915050565b60006020828403121561046f5761046e61041e565b5b600061047d84828501610444565b91505092915050565b600073ffffffffffffffffffffffffffffffffffffffff82169050919050565b60006104b182610486565b9050919050565b6104c1816104a6565b81146104cc57600080fd5b50565b6000813590506104de816104b8565b92915050565b6000806000606084860312156104fd576104fc61041e565b5b600061050b868287016104cf565b935050602061051c86828701610444565b925050604061052d868287016104cf565b9150509250925092565b6000806040838503121561054e5761054d61041e565b5b600061055c858286016104cf565b925050602061056d858286016104cf565b9150509250929050565b610580816104a6565b82525050565b61058f81610423565b82525050565b60006040820190506105aa6000830185610577565b6105b76020830184610586565b9392505050565b60008115159050919050565b6105d3816105be565b81146105de57600080fd5b50565b6000815190506105f0816105ca565b92915050565b60006020828403121561060c5761060b61041e565b5b600061061a848285016105e1565b91505092915050565b60006020820190506106386000830184610577565b92915050565b60008151905061064d8161042d565b92915050565b6000602082840312156106695761066861041e565b5b60006106778482850161063e565b91505092915050565b60006060820190506106956000830186610577565b6106a26020830185610577565b6106af6040830184610586565b949350505050565b60006020820190506106cc6000830184610586565b9291505056fea2646970667358221220e90f7f75463aecc7af53c85382166bddc72bec57d666cc34965183c2dcb042ec64736f6c634300080f0033",
  "linkReferences": {},
  "deployedLinkReferences": {}
}